{
  "contractName": "ParkingDapp",
  "abi": [
    {
      "inputs": [],
      "stateMutability": "nonpayable",
      "type": "constructor"
    },
    {
      "inputs": [
        {
          "internalType": "uint256",
          "name": "_ticketNumber",
          "type": "uint256"
        },
        {
          "internalType": "string",
          "name": "_licencePlate",
          "type": "string"
        },
        {
          "internalType": "string",
          "name": "_stateRegisteredIn",
          "type": "string"
        }
      ],
      "name": "addTicket",
      "outputs": [],
      "stateMutability": "nonpayable",
      "type": "function"
    },
    {
      "inputs": [
        {
          "internalType": "uint256",
          "name": "_ticketNumber",
          "type": "uint256"
        }
      ],
      "name": "getTicket",
      "outputs": [
        {
          "components": [
            {
              "internalType": "string",
              "name": "firstName",
              "type": "string"
            },
            {
              "internalType": "string",
              "name": "lastName",
              "type": "string"
            },
            {
              "internalType": "string",
              "name": "email",
              "type": "string"
            },
            {
              "internalType": "string",
              "name": "licencePlate",
              "type": "string"
            },
            {
              "internalType": "string",
              "name": "stateRegisteredIn",
              "type": "string"
            },
            {
              "internalType": "address",
              "name": "offenderAddress",
              "type": "address"
            },
            {
              "internalType": "uint256",
              "name": "fine",
              "type": "uint256"
            },
            {
              "internalType": "bool",
              "name": "paid",
              "type": "bool"
            },
            {
              "internalType": "bool",
              "name": "added",
              "type": "bool"
            }
          ],
          "internalType": "struct ParkingDapp.Ticket",
          "name": "",
          "type": "tuple"
        }
      ],
      "stateMutability": "view",
      "type": "function",
      "constant": true
    },
    {
      "inputs": [
        {
          "internalType": "uint256",
          "name": "_ticketNumber",
          "type": "uint256"
        },
        {
          "internalType": "string",
          "name": "_firstName",
          "type": "string"
        },
        {
          "internalType": "string",
          "name": "_lastName",
          "type": "string"
        },
        {
          "internalType": "string",
          "name": "_email",
          "type": "string"
        }
      ],
      "name": "payTicket",
      "outputs": [],
      "stateMutability": "payable",
      "type": "function",
      "payable": true
    }
  ],
  "bytecode": "0x608060405234801561001057600080fd5b5033600160006101000a81548173ffffffffffffffffffffffffffffffffffffffff021916908373ffffffffffffffffffffffffffffffffffffffff160217905550600a6002819055506111b0806100696000396000f3fe6080604052600436106100345760003560e01c806377382fb6146100395780637dc379fa146100625780638d86de741461009f575b600080fd5b34801561004557600080fd5b50610060600480360381019061005b9190610c0f565b6100bb565b005b34801561006e57600080fd5b5061008960048036038101906100849190610c9a565b610350565b6040516100969190610e9b565b60405180910390f35b6100b960048036038101906100b49190610ebd565b610747565b005b600160009054906101000a900473ffffffffffffffffffffffffffffffffffffffff1673ffffffffffffffffffffffffffffffffffffffff163373ffffffffffffffffffffffffffffffffffffffff161461011557600080fd5b6040518061012001604052806040518060400160405280600381526020017f4e2f41000000000000000000000000000000000000000000000000000000000081525081526020016040518060400160405280600381526020017f4e2f41000000000000000000000000000000000000000000000000000000000081525081526020016040518060400160405280600381526020017f4e2f4100000000000000000000000000000000000000000000000000000000008152508152602001838152602001828152602001600073ffffffffffffffffffffffffffffffffffffffff1681526020016002548152602001600015158152602001600115158152506000808581526020019081526020016000206000820151816000019080519060200190610241929190610976565b50602082015181600101908051906020019061025e929190610976565b50604082015181600201908051906020019061027b929190610976565b506060820151816003019080519060200190610298929190610976565b5060808201518160040190805190602001906102b5929190610976565b5060a08201518160050160006101000a81548173ffffffffffffffffffffffffffffffffffffffff021916908373ffffffffffffffffffffffffffffffffffffffff16021790555060c0820151816006015560e08201518160070160006101000a81548160ff0219169083151502179055506101008201518160070160016101000a81548160ff021916908315150217905550905050505050565b6103586109fc565b600160009054906101000a900473ffffffffffffffffffffffffffffffffffffffff1673ffffffffffffffffffffffffffffffffffffffff163373ffffffffffffffffffffffffffffffffffffffff16146103b257600080fd5b600080838152602001908152602001600020604051806101200160405290816000820180546103e090610fa7565b80601f016020809104026020016040519081016040528092919081815260200182805461040c90610fa7565b80156104595780601f1061042e57610100808354040283529160200191610459565b820191906000526020600020905b81548152906001019060200180831161043c57829003601f168201915b5050505050815260200160018201805461047290610fa7565b80601f016020809104026020016040519081016040528092919081815260200182805461049e90610fa7565b80156104eb5780601f106104c0576101008083540402835291602001916104eb565b820191906000526020600020905b8154815290600101906020018083116104ce57829003601f168201915b5050505050815260200160028201805461050490610fa7565b80601f016020809104026020016040519081016040528092919081815260200182805461053090610fa7565b801561057d5780601f106105525761010080835404028352916020019161057d565b820191906000526020600020905b81548152906001019060200180831161056057829003601f168201915b5050505050815260200160038201805461059690610fa7565b80601f01602080910402602001604051908101604052809291908181526020018280546105c290610fa7565b801561060f5780601f106105e45761010080835404028352916020019161060f565b820191906000526020600020905b8154815290600101906020018083116105f257829003601f168201915b5050505050815260200160048201805461062890610fa7565b80601f016020809104026020016040519081016040528092919081815260200182805461065490610fa7565b80156106a15780601f10610676576101008083540402835291602001916106a1565b820191906000526020600020905b81548152906001019060200180831161068457829003601f168201915b505050505081526020016005820160009054906101000a900473ffffffffffffffffffffffffffffffffffffffff1673ffffffffffffffffffffffffffffffffffffffff1673ffffffffffffffffffffffffffffffffffffffff168152602001600682015481526020016007820160009054906101000a900460ff161515151581526020016007820160019054906101000a900460ff1615151515815250509050919050565b6001151560008086815260200190815260200160002060070160019054906101000a900460ff161515146107b0576040517f08c379a00000000000000000000000000000000000000000000000000000000081526004016107a79061105c565b60405180910390fd5b6000151560008086815260200190815260200160002060070160009054906101000a900460ff16151514610819576040517f08c379a0000000000000000000000000000000000000000000000000000000008152600401610810906110ee565b60405180910390fd5b600080858152602001908152602001600020600601543414610870576040517f08c379a00000000000000000000000000000000000000000000000000000000081526004016108679061115a565b60405180910390fd5b826000808681526020019081526020016000206000019080519060200190610899929190610976565b508160008086815260200190815260200160002060010190805190602001906108c3929190610976565b508060008086815260200190815260200160002060020190805190602001906108ed929190610976565b503360008086815260200190815260200160002060050160006101000a81548173ffffffffffffffffffffffffffffffffffffffff021916908373ffffffffffffffffffffffffffffffffffffffff160217905550600160008086815260200190815260200160002060070160006101000a81548160ff02191690831515021790555050505050565b82805461098290610fa7565b90600052602060002090601f0160209004810192826109a457600085556109eb565b82601f106109bd57805160ff19168380011785556109eb565b828001600101855582156109eb579182015b828111156109ea5782518255916020019190600101906109cf565b5b5090506109f89190610a62565b5090565b6040518061012001604052806060815260200160608152602001606081526020016060815260200160608152602001600073ffffffffffffffffffffffffffffffffffffffff168152602001600081526020016000151581526020016000151581525090565b5b80821115610a7b576000816000905550600101610a63565b5090565b6000604051905090565b600080fd5b600080fd5b6000819050919050565b610aa681610a93565b8114610ab157600080fd5b50565b600081359050610ac381610a9d565b92915050565b600080fd5b600080fd5b6000601f19601f8301169050919050565b7f4e487b7100000000000000000000000000000000000000000000000000000000600052604160045260246000fd5b610b1c82610ad3565b810181811067ffffffffffffffff82111715610b3b57610b3a610ae4565b5b80604052505050565b6000610b4e610a7f565b9050610b5a8282610b13565b919050565b600067ffffffffffffffff821115610b7a57610b79610ae4565b5b610b8382610ad3565b9050602081019050919050565b82818337600083830152505050565b6000610bb2610bad84610b5f565b610b44565b905082815260208101848484011115610bce57610bcd610ace565b5b610bd9848285610b90565b509392505050565b600082601f830112610bf657610bf5610ac9565b5b8135610c06848260208601610b9f565b91505092915050565b600080600060608486031215610c2857610c27610a89565b5b6000610c3686828701610ab4565b935050602084013567ffffffffffffffff811115610c5757610c56610a8e565b5b610c6386828701610be1565b925050604084013567ffffffffffffffff811115610c8457610c83610a8e565b5b610c9086828701610be1565b9150509250925092565b600060208284031215610cb057610caf610a89565b5b6000610cbe84828501610ab4565b91505092915050565b600081519050919050565b600082825260208201905092915050565b60005b83811015610d01578082015181840152602081019050610ce6565b83811115610d10576000848401525b50505050565b6000610d2182610cc7565b610d2b8185610cd2565b9350610d3b818560208601610ce3565b610d4481610ad3565b840191505092915050565b600073ffffffffffffffffffffffffffffffffffffffff82169050919050565b6000610d7a82610d4f565b9050919050565b610d8a81610d6f565b82525050565b610d9981610a93565b82525050565b60008115159050919050565b610db481610d9f565b82525050565b6000610120830160008301518482036000860152610dd88282610d16565b91505060208301518482036020860152610df28282610d16565b91505060408301518482036040860152610e0c8282610d16565b91505060608301518482036060860152610e268282610d16565b91505060808301518482036080860152610e408282610d16565b91505060a0830151610e5560a0860182610d81565b5060c0830151610e6860c0860182610d90565b5060e0830151610e7b60e0860182610dab565b50610100830151610e90610100860182610dab565b508091505092915050565b60006020820190508181036000830152610eb58184610dba565b905092915050565b60008060008060808587031215610ed757610ed6610a89565b5b6000610ee587828801610ab4565b945050602085013567ffffffffffffffff811115610f0657610f05610a8e565b5b610f1287828801610be1565b935050604085013567ffffffffffffffff811115610f3357610f32610a8e565b5b610f3f87828801610be1565b925050606085013567ffffffffffffffff811115610f6057610f5f610a8e565b5b610f6c87828801610be1565b91505092959194509250565b7f4e487b7100000000000000000000000000000000000000000000000000000000600052602260045260246000fd5b60006002820490506001821680610fbf57607f821691505b60208210811415610fd357610fd2610f78565b5b50919050565b600082825260208201905092915050565b7f7469636b657420776974682074686174206e756d62657220646f6573206e6f7460008201527f20657869737420696e206f757220726567697374727900000000000000000000602082015250565b6000611046603683610fd9565b915061105182610fea565b604082019050919050565b6000602082019050818103600083015261107581611039565b9050919050565b7f7469636b657420776974682074686174206e756d6265722068617320616c726560008201527f616479206265656e207061696400000000000000000000000000000000000000602082015250565b60006110d8602d83610fd9565b91506110e38261107c565b604082019050919050565b60006020820190508181036000830152611107816110cb565b9050919050565b7f696e636f72726563742076616c75652073656e74000000000000000000000000600082015250565b6000611144601483610fd9565b915061114f8261110e565b602082019050919050565b6000602082019050818103600083015261117381611137565b905091905056fea26469706673582212208a4d1a2e568229cca58ca00816485830bae2bb695ca205a0ce35d08ecbe0eb1564736f6c634300080b0033",
  "immutableReferences": {},
  "source": "pragma solidity ^0.8.11;\n\ncontract ParkingDapp{\n\n    struct Ticket{\n        string firstName;\n        string lastName;\n        string email;\n        string licencePlate;\n        string stateRegisteredIn;\n        address offenderAddress;\n        uint fine;\n        bool paid;\n        bool added;\n    }\n\n    mapping(uint => Ticket) private TicketMap;\n    address private owner;\n    uint private fine;\n\n    constructor(){\n        //sets owner as contract deployer\n        owner = msg.sender;\n\n        //sets the fine to 10 wei\n        fine = 10;\n    }\n\n    modifier _onlyOwner{\n        require(msg.sender == owner);\n        _;\n    }\n\n\n    function addTicket (\n        uint _ticketNumber, \n        string memory _licencePlate, \n        string memory _stateRegisteredIn\n        ) public _onlyOwner{\n\n        TicketMap[_ticketNumber] = Ticket ({\n            firstName: \"N/A\",\n            lastName: \"N/A\",\n            email: \"N/A\",\n            licencePlate: _licencePlate,\n            stateRegisteredIn: _stateRegisteredIn,\n            offenderAddress: 0x0000000000000000000000000000000000000000,\n            fine: fine,\n            paid: false,\n            added: true\n        });\n\n    }\n\n\n    function getTicket(uint _ticketNumber) public view _onlyOwner \n        returns(Ticket memory){\n\n        //returns the ticket struct for that ticket number\n        return TicketMap[_ticketNumber];\n    }\n\n\n    function payTicket(\n        uint _ticketNumber,\n        string memory _firstName,\n        string memory _lastName,\n        string memory _email\n    ) public payable{\n        require(TicketMap[_ticketNumber].added == true, \n        \"ticket with that number does not exist in our registry\");\n\n        require(TicketMap[_ticketNumber].paid == false,\n        \"ticket with that number has already been paid\");\n\n        require(msg.value == TicketMap[_ticketNumber].fine,\n        \"incorrect value sent\");\n\n        TicketMap[_ticketNumber].firstName = _firstName;\n        TicketMap[_ticketNumber].lastName = _lastName;\n        TicketMap[_ticketNumber].email = _email;\n        TicketMap[_ticketNumber].offenderAddress = msg.sender;\n        TicketMap[_ticketNumber].paid = true;\n    }\n\n\n}\n",
  "sourcePath": "/Users/nicholassaros/Desktop/ParkingTicketDapp/contracts/Parking_Dapp.sol",
  "compiler": {
    "name": "solc",
    "version": "0.8.11+commit.d7f03943.Emscripten.clang"
  },
  "schemaVersion": "3.4.5",
  "updatedAt": "2022-03-05T04:17:24.929Z",
  "networkType": "ethereum",
  "devdoc": {
    "kind": "dev",
    "methods": {},
    "version": 1
  },
  "userdoc": {
    "kind": "user",
    "methods": {},
    "version": 1
  }
}